S00E00005741565265632E737265630E
S1130000F82C0020E1AB000069030000D9AC00002B
S113001000000000000000000000000000000000DC
S1130020000000000000000000000000D9AC000047
S11300300000000000000000D9AC0000D9AC0000B2
S1130040D9AC0000D9AC0000D9AC00000D7A000096
S1130050B9020000D9AC0000D9AC0000A5750000BD
S1130060D9AC0000C58D0000DD8D0000F58D0000C9
S11300700D8E0000258E00003D8E0000D9AC0000DE
S1130080D9AC0000D9AC0000D9AC0000D9AC000058
S1130090D9AC00000000000000000000D9AC000052
S11300A0D9AC0000D9AC0000D9AC0000D9AC000038
S11300B00000000010B5064C2378002B07D1054B37
S11300C0002B02D0044800E000BF0123237010BDC0
S11300D050010020000000004CB90000084B10B58E
S11300E0002B03D00749084800E000BF0748036815
S11300F0002B00D110BD064B002BFBD09847F9E72D
S113010000000000540100204CB900004CB900006C
S113011000000000B0B586B000AF05000C00100070
S11301201900FB1D2A1C1A70BB1D221C1A707B1D92
S1130130021C1A703B1D0A1C1A701723FB18FA1DA7
S1130140127852091A701623FB18FA1D12781F210F
S11301500A401A701623FB181B7801229A401300D8
S11301603B613B1D1A78BB6A1A43FB6A1A433B6B1B
S11301701A437B6B1343FB60294A1723FB181B7834
S1130180DB01D31804333A691A603B691B041B0C66
S11301900ED023481723FB181B783969FA680A43E1
S11301A0A021C9050A43DB01C31828331A600EE0F5
S11301B01B481723FB181B783A69110CFA680A4389
S11301C0D02109060A43DB01C31828331A607B1DBA
S11301D01B78002B09D0124A1723FB181B78DB016C
S11301E0D31818333A691A6008E00D4A1723FB182C
S11301F01B78DB01D31814333A691A60BB1D1B78D2
S1130200002B08D0064A1723FB181B78DB01D318F0
S113021008333A691A60C046BD4606B0B0BDC04650
S11302200044004180B584B000AF0200FB1D1A7089
S11302300F23FB18FA1D127852091A70FB1D1B7844
S11302401F22134001229A401300BB60BB681B04A9
S11302501B0C0CD017480F23FB181B78BA68A0217D
S1130260C9050A43DB01C31828331A600CE011489E
S11302700F23FB181B78BA68120CD02109060A4315
S1130280DB01C31828331A600A4A0F23FB181B78B2
S1130290DB01D3180433BA681A60064A0F23FB182B
S11302A01B78DB01D3181433BA681A60C046BD4604
S11302B004B080BD0044004180B582B000AF274A3D
S11302C0274B1B68DB431B041B0C1361FB1D012222
S11302D01A7033E0FB1D1A78224913009B009B1807
S11302E09B00CB1808331A6880235B029A4225D0FE
S11302F01A4B1969FB1D1A781A4813009B009B18A6
S11303009B00C31808331B680B4017D0FB1D1A78D9
S1130310144913009B009B189B00CB1810331B68D7
S113032098470E4AFB1D19780E480B009B005B187A
S11303309B00C31808331B681361C046074B1B6935
S1130340002B06D0FB1D1B78FA1D591E1170002BC3
S1130350C0D1C046BD4602B080BDC04600180040B2
S1130360800100206C01002080B500AF094AD378D9
S113037001210B43D370084B1B781900074A0B006B
S11303809B005B189B00D31810331B689847C0462A
S1130390BD4680BD001800400C0000206C01002008
S11303A080B582B000AF78607B6818687B68596854
S11303B07B689B681A00034B9847C046BD4602B051
S11303C080BDC0462984000080B582B000AF78604B
S11303D0C0467B681B681B68DB69002BF9D17B680E
S11303E01B681B687A6812681268126802210A4343
S11303F01A60C046BD4602B080BD80B582B000AF71
S113040078600A00FB1C1A707B681B681B68FA1C66
S113041012789A62C0467B681B681B681B7EDBB23D
S11304201A0004231340F6D07B681B681B689B6A80
S1130430DBB21800BD4602B080BD90B587B000AFF6
S1130440F8600C00100019000A23FB18221C1A8003
S11304500823FB18021C1A80FB1D0A1C1A700A23AD
S1130460FB181A880823FB181B88D31A0733002BA0
S113047000DA0733DB10013BFA68D3181B78190044
S11304800823FB181B880722134019410B007B61CA
S11304900823FB181B8807221A40FB1D1B78D3185E
S11304A0082B1CDD0A23FB181A880823FB181B8859
S11304B0D31A0733002B00DA0733DB10023BFA6848
S11304C0D3181B7819000823FB181B880722134034
S11304D00822D31A99400B007A6913437B610823DD
S11304E0FB181B8807221A40FB1D1B78D318102BFE
S11304F01CDD0A23FB181A880823FB181B88D31A4F
S11305000733002B00DA0733DB10033BFA68D318F8
S11305101B7819000823FB181B880722134010229C
S1130520D31A99400B007A6913437B610823FB18A3
S11305301B8807221A40FB1D1B78D318102B1CDDC7
S11305400A23FB181A880823FB181B88D31A0733BD
S1130550002B00DA0733DB10033BFA68D3181B784F
S113056019000823FB181B88072213401022D31AF2
S113057099400B007A6913437B61FB1D1B780122B0
S11305809A4013005A1E7B6913407B617B691800F3
S1130590BD4607B090BD000080B582B000AF234BCC
S11305A07B60234B00211800224B984703001A005C
S11305B001235340DBB2002B01D0002331E01E4B5A
S11305C0984703003B603B680122134006D07B68D8
S11305D05A1E7A60002BE4D1002322E0C046174B58
S11305E000211800134B984703001A0001235340BD
S11305F0DBB2002B01D0002313E00F4B984702001D
S1130600C023DB051A408023DB059A4208D10C4B3A
S11306101A680B4B1B68DB7A08210B43DBB2D372DD
S113062001231800BD4602B080BDC046EE1B000089
S1130630011100002D9600006D9800003A0500009D
S1130640A801002080B586B000AF0200FB1D1A701F
S11306502E4B3B612E4B002118002E4B9847030074
S11306601A0001235340DBB2002B01D0002348E0E1
S113067000237B61FB1D1B78002B04D07B69802247
S1130680D20513437B617B69234A19001000214B77
S1130690984703001A0001235340DBB2002B01D01A
S11306A000232EE01D4B98470300FB60FB680122EA
S11306B0134006D03B695A1E3A61002BCAD100236D
S11306C01FE0C046164B00211800124B9847030048
S11306D01A0001235340DBB2002B01D0002310E0A9
S11306E00E4B984702008023DB05134008D00D4BC6
S11306F01A680C4B1B68DB7A08210B43DBB2D372FC
S113070001231800BD4606B080BDC046EE1B0000A4
S1130710371100002D960000291100006D9800008B
S11307203A050000A801002080B500AF012318009D
S1130730BD4680BD80B584B000AF78607B68002280
S11307401A70D5235B00144A19001000134B984704
S113075003001A0001235340DBB2002B01D0012314
S113076015E00F4B98470300FB60FB68013301D190
S113077001230CE0FB681B051A0DD5235B009A428C
S113078001D0002303E07B6801221A7001231800C2
S1130790BD4604B080BDC046085500002D9600003B
S11307A06D98000090B589B002AF786080239A00FC
S11307B041480023009301230021404CA04703003B
S11307C01A0001235340DBB2002B01D000236EE05A
S11307D01623FB1800221A8014E01023FB181800BB
S11307E0374B984703001A0001235340DBB2002B18
S11307F001D000235BE01623FB181A881623FB188C
S113080001321A801623FB181B88312BE5D93B696A
S1130810DBB202221340DAB27B681A70294B1B68E0
S11308200E3318000C233E228021274CA0470200DF
S1130830264B9A4235D114E00C23FB181800204BA8
S1130840984703001A0001235340DBB2002B01D068
S113085000232CE01623FB181A881623FB180132F8
S11308601A801623FB181B88352BE5D9154B1B68FA
S1130870FA6852085A6014E00C23FB181800104B55
S1130880984703001A0001235340DBB2002B01D028
S113089000230CE01623FB181A881623FB180132D8
S11308A01A801623FB181B887F2BE5D90123180017
S11308B0BD4607B090BDC04608110800559600001B
S11308C081980000A80100203B040000FF0F0000F5
S11308D090B583B002AF154B1B681B8919041448EB
S11308E00123009301231022124CA04703001A0095
S11308F001235340DBB2002B01D0002312E00B4B49
S11309001B680E33012118000B4B984703001A0093
S113091001235340DBB2002B01D0002302E0074B3C
S1130920984703001800BD4601B090BDA8010020FF
S1130930091108005596000025990000C999000086
S1130940B0B584B000AF454B1B680E3318000423C8
S11309507A228021424CA0470300022B11D002D8F6
S1130960012B09D003E0032B10D0042B13D03B4BF5
S11309701B6812221A7313E0384B1B6814221A7373
S11309800EE0364B1B6822221A7309E0334B1B68B6
S113099030221A7304E0314B1B6840221A73C0469C
S11309A02E4B1B680E3318000823602280212C4C28
S11309B0A0470300FB60FB6807221A40294B920002
S11309C0D358BB60FB68DB080F221A40264B920009
S11309D0D3587B60214B1B68BA6879684A43FA2173
S11309E089004A431A601D4B1B680E3318000C2300
S11309F03E2280211A4CA04702001C4B9A4228D068
S1130A00164B1B680E3318000C233E228021144C15
S1130A10A04703005C1C114B1B680E331800032312
S1130A202F2280210E4DA847030002339C4023004F
S1130A303B600A4B1C68094B1B680E3318000423E7
S1130A4050228021064DA84702003B6893409B0A30
S1130A506360C046BD4604B0B0BDC046A8010020D6
S1130A603B04000004B6000060B60000FF0F000065
S1130A70B0B584B000AF354B1B680E3318000823A3
S1130A8060228021324CA0470300FB60FB680722F0
S1130A901A40304B9200D358BB60FB68DB080F222E
S1130AA01A402D4B9200D3587B60284B1B68BA68C0
S1130AB079684A43FA2189004A431A60234B1B6828
S1130AC00E33180002237E228021214CA047031EEE
S1130AD00FD01E4B1C681D4B1B680E3318001623C9
S1130AE0302280211A4DA847030001335B02636062
S1130AF028E0164B1B680E3318000C233E2280217D
S1130B00134CA04703005C1C104B1B680E331800E9
S1130B1003232F2280210E4DA847030002339C405B
S1130B2023003B60094B1C68084B1B680E331800FC
S1130B30042350228021064DA84702003B689340BD
S1130B409B0A6360C046BD4604B0B0BDA801002046
S1130B503B04000004B6000020B6000080B582B05B
S1130B6000AF114B7B60114B00211800104B9847CC
S1130B7003001A0001235340DBB2002B01D00023F1
S1130B800EE00C4B98470200FF23134006D07B680D
S1130B905A1E7A60002BE6D1002301E0C0460123EF
S1130BA01800BD4602B080BD400D03000D1B0000BF
S1130BB02D9600006D98000090B585B002AF384BBB
S1130BC01B681B891B04374A19001000364B9847D1
S1130BD003001A0001235340DBB2002B01D0002391
S1130BE059E0324801230093012308220021304CAC
S1130BF0A04703001A0001235340DBB2002B01D0AD
S1130C00002348E03B00012118002A4B98470300C9
S1130C101A0001235340DBB2002B01D000233AE039
S1130C20254B984703001A0001235340DBB2002BE5
S1130C3001D000232FE038000423382240211F4C28
S1130C40A0470300012B08D002D3022B0AD01CE0DA
S1130C50134B1B6810221A731CE0114B1B681A22D9
S1130C601A7317E0380001232F224021134CA047A8
S1130C700300012B04D10A4B1B6830221A7309E0CC
S1130C80074B1B6820221A7304E0054B1B681022D3
S1130C901A73C04601231800BD4603B090BDC04678
S1130CA0A8010020371100002D9600003311080020
S1130CB05596000025990000C99900003B040000E6
S1130CC080B582B000AF0200FB1D1A70FB1D1B78BB
S1130CD0002B01D0042347E0FB1D1B78244A5B0151
S1130CE0D3180A331B78042B08D0FB1D1B78204A29
S1130CF05B01D3180A331B78032B1DD1FB1D1B7812
S1130D001B4A5B01D3180A3302221A70FB1D1A789E
S1130D10174B52011749D150FB1D1B78144A5B0134
S1130D20D3180D3301221A70FB1D1B78104A5B0186
S1130D30D3181E3300221A700F4BFA1D12781A7042
S1130D40FB1D1B785A010A4BD2180C4B1A600C4B32
S1130D509847FB1D1B78064A5B01D3180A331B789E
S1130D60023B5A425341DBB21800BD4602B080BD7B
S1130D7084010020801A0600A4010020A80100209C
S1130D80850D0000B0B500AF094B1878094B1B68FE
S1130D901968084B1B685A7B064B1B689B7F5C1EBB
S1130DA0A341DBB2044CA047C046BD46B0BDC0461B
S1130DB0A4010020A80100201595000080B500AF13
S1130DC0054B1B78002B04D1034B1B781800034BF5
S1130DD09847C046BD4680BDA40100209D950000F3
S1130DE080B582B000AFFB1D00221A70594B1B68FE
S1130DF00122DA72574B1B6800221A73554B1B6889
S1130E0000221A81544B984788235B010021180063
S1130E10524B984703001A0001235340DBB2002BC6
S1130E2001D0002392E0FB1D18004D4B98470300AE
S1130E301A0001235340DBB2002B01D0002385E0CC
S1130E40484B984703001A0001235340DBB2002BA0
S1130E5001D000237AE03F4B1B68DB7A1A000123A0
S1130E60134021D0FB1D1B7818003F4B984703000B
S1130E701A0001235340DBB2002B07D0354B1B680B
S1130E800222DA72394B984703005FE0384B0021A5
S1130E901800324B984703001A0001235340DBB279
S1130EA0002B01D0002351E02A4B1B68DB7A1A0087
S1130EB00123134017D02F4B984703001A00012336
S1130EC05340DBB2002B01D000233FE02A4B98476C
S1130ED02A4B984703001A0001235340DBB2002B2E
S1130EE001D0002332E01B4B1B68DB7A1A0001237C
S1130EF0134016D0174B1B68DB7A1A0008231340E3
S1130F000FD180239B001E4A19001000134B9847F1
S1130F1003001A0001235340DBB2002B01D000234D
S1130F2014E00C4B1B68DB7A1A00012313400AD02F
S1130F30144B984703001A0001235340DBB2002BE3
S1130F4001D0002302E0104B984701231800BD464E
S1130F5002B080BDA8010020E19500002D9600009C
S1130F603507000029070000450600008D0F00002A
S1130F703B110000D1080000710A0000B90B000009
S1130F80101100005D0B0000850D000080B582B0DB
S1130F9000AF88235B0100211800324B98470300FF
S1130FA01A0001235340DBB2002B01D0002355E08B
S1130FB02D4B984703001A0001235340DBB2002B4A
S1130FC001D000234AE0294B00211800254B984703
S1130FD003001A0001235340DBB2002B01D000238D
S1130FE03CE0234B984703001A0001235340DBB233
S1130FF0002B01D0002331E01E4B98471E4B1B6889
S11310001B7B3F2B0CD9FB1D18001C4B984703007E
S11310101A0001235340DBB2002B01D000231DE052
S113102080239B00164A190010000E4B98470300BA
S11310301A0001235340DBB2002B01D000230DE042
S1131040104B984703001A0001235340DBB2002BD6
S113105001D0002302E00C4B984701231800BD4641
S113106002B080BD2D960000990500003B110000E0
S1131070D108000041090000A8010020A5070000D4
S1131080101100005D0B0000850D000080B582B0DA
S113109000AFFB1D00221A700CE0FB1D1B780C4AEC
S11310A05B01D3180A3304221A70FB1D1A78FB1D46
S11310B001321A70FB1D1B78002BEED0054BFF226A
S11310C01A70054B9847C046BD4602B080BDC04665
S11310D084010020A40100205D94000090B585B037
S11310E000AF0200FB1D1A700F23FC18FB1D1B78B8
S11310F01800134B9847030023700F23FB181B7829
S1131100012B05D00F4B98470F23FB181B7812E0D7
S11311100D4B9847031E07D00C4B1B6800229A7294
S1131120084B9847012306E0084B1B6803229A7278
S1131130044B984703231800BD4605B090BDC04634
S1131140C10C0000BD0D0000E10D0000A80100204D
S113115080B582B000AF0200FB1D1A70FB1D1B7826
S11311601800074B9847031E01D0002304E0054BE9
S11311709847054B1B68DB7A1800BD4602B080BD5A
S1131180C10C0000BD0D0000A801002080B582B094
S113119000AF0200FB1D1A70FB1D1B781800074BE3
S11311A09847031E01D0002304E0054B9847054BE4
S11311B01B685B681800BD4602B080BDC10C00000E
S11311C0BD0D0000A801002080B582B000AF020070
S11311D0FB1D1A7000231800BD4602B080BD00003C
S11311E090B589B002AF39601100FB1D021C1A7062
S11311F03B1D0A1C1A800F23FC18FB1D1B781800CA
S1131200294B9847030023700F23FB181B78002BEE
S113121003D00F23FB181B7841E0244B98470300AD
S11312201A0001235340DBB2002B03D0204B984714
S1131230052334E03B1D1B88012B02D91D4B7B6128
S113124001E01D4B7B611D4B1B68DB7A1A000823F0
S1131250134002D03B683B6102E03B685B023B61A8
S11312603B1D1C8880239A00396978690123009307
S11312702300134CA04703001A0001235340DBB2A0
S1131280002B03D00A4B9847052308E00D4B3A1D69
S113129012881A800C4B3A1D12881A8000231800F9
S11312A0BD4607B090BDC046C10C00005D0B0000F8
S11312B0BD0D00001211100011110800A80100203A
S11312C055960000AE010020AC01002080B582B02C
S11312D000AF78600A00BB1C1A80BB1C1A887B68AC
S11312E0110018000D4B984703001A0001235340C6
S11312F0DBB2002B04D00A4B00221A80052308E03D
S1131300074B1A88BB1C1B88D31A9AB2044B1A8049
S113131000231800BD4602B080BDC04625990000D8
S1131320AE01002080B582B000AF0200FB1D1A7030
S11313301C4B984703001A0001235340DBB2002BD7
S113134001D0052329E0FB1D1B78002B03D0164B8D
S113135000221A8005E0144B1B88002B01D00023C7
S11313601BE0124B1B88012B03D1114B9847002320
S113137013E0104B002118000F4B984703001A008C
S113138001235340DBB2002B04D00A4B0021180088
S1131390094B9847064B984700231800BD4602B0F6
S11313A080BDC046C9990000AE010020AC010020F8
S11313B0BD0D00000C3100002D96000090B589B0E1
S11313C002AF39601100FB1D021C1A703B1D0A1C80
S11313D01A800F23FC18FB1D1B781800284B984714
S11313E0030023700F23FB181B78002B03D00F235B
S11313F0FB181B783FE0FB1D1B781800214B984716
S1131400031E03D0204B9847072334E03B1D1B8861
S1131410012B02D91D4B7B6101E01D4B7B611D4BF0
S11314201B68DB7A1A000823134002D03B683B6137
S113143002E03B685B023B613B1D1C8880239A00F1
S113144039697869012300932300134CA0470300F2
S11314501A0001235340DBB2002B03D00A4B9847F8
S1131460052308E00D4B3A1D12881A800C4B3A1DD7
S113147012881A8000231800BD4607B090BDC046EC
S1131480C10C0000C9110000BD0D0000199110002D
S113149018910800A801002055960000AE01002014
S11314A0AC01002080B582B000AF78600A00BB1C9C
S11314B01A80BB1C1A887B68110018000D4B9847D2
S11314C003001A0001235340DBB2002B04D00A4B63
S11314D000221A80052308E0074B1A88BB1C1B88CE
S11314E0D31A9AB2044B1A8000231800BD4602B0E6
S11314F080BDC046D5990000AE01002080B582B001
S113150000AF0200FB1D1A70134B984703001A002A
S113151001235340DBB2002B01D0052318E0FB1D4F
S11315201B78002B03D00D4B00221A8005E00B4BD7
S11315301B88002B01D000230AE0094B1B88012BD8
S113154003D1084B9847002302E0064B9847002339
S11315501800BD4602B080BD959A0000AE0100207F
S1131560AC010020BD0D000080B582B000AF0200C8
S1131570FB1D1A70FB1D1B781800164B98470300BF
S1131580012B19D0022B19D0002B1ED1FB1D1B7867
S1131590114AD35C002B01D0022317E0FB1D1B78FA
S11315A018000E4B984703001A000323134001D080
S11315B000230BE0022309E0032307E0FB1D1B7853
S11315C0054A0021D154022300E001231800BD463E
S11315D002B080BDDD100000B001002051110000F8
S11315E080B500AF0020034B984703001800BD46A8
S11315F080BDC0466915000080B582B000AF02000E
S11316003960FB1D1A70FB1D1B781800084B9847A6
S113161003005B005A1E3B681A60FB1D1B78180010
S1131620044B984703001800BD4602B080BDC04675
S11316308D1100006915000080B582B000AF78609C
S11316407B6819000020034B984703001800BD462F
S113165002B080BDF915000080B582B000AF020071
S1131660FB1D1A70BB1D0A1C1A70FB1D1B78044A53
S1131670B91D0978D15401231800BD4602B080BDBC
S1131680B001002080B582B000AF0200FB1D1A70CB
S1131690FB1D1B7819000020034B9847030018001A
S11316A0BD4602B080BDC0465916000080B582B068
S11316B000AF0200FB1D1A70FB1D1B781800034BC2
S11316C0984703001800BD4602B080BDC911000050
S11316D080B500AF0020034B984703001800BD46B7
S11316E080BDC046AD16000080B582B000AF0200D8
S11316F0FB1D1A7000231800BD4602B080BD000017
S113170080B500AF0020034B984703001800BD4686
S113171080BDC046E916000090B585B000AF3960C1
S11317201100FB1D021C1A703B1D0A1C1A800F239A
S1131730FB1801221A703B1D1A883968FB1D1B789F
S113174018003C4B9847031E05D0022B01D10223FD
S11317506CE001236AE0C0460C23FB183A1D128892
S113176001321A8058E00C23FB181B88002B12D07E
S11317700C23FB181B88012213409BB2002B01D1C0
S11317802D4B00E02D4B012118002D4B9847031ED3
S113179001D001234AE00F23FB181B780122534098
S11317A0DBB2002B24D00C23FB181B88012213402E
S11317B09BB2002B01D1214900E01F4980239A00EC
S11317C0002301201F4CA04703001A0001235340AB
S11317D0DBB2002B10D00F23FB181B7801225340DF
S11317E0DBB2002B02D00120174B984701231DE0E8
S11317F00F23FB1800221A700C23FB181B88002BE4
S113180006D00020104B9847031E01D001230DE0A1
S11318100F23FB1800221A700C23FB181B880C22C0
S1131820BA18591E1180002B9DD100231800BD4603
S113183005B090BDE1110000080700200805002054
S1131840CD120000CD3600002513000080B582B013
S113185000AF78600A00BB1C1A80BB1C1A887B6826
S113186019000020034B984703001800BD4602B03E
S113187080BDC0461917000090B585B000AF39602F
S11318801100FB1D021C1A703B1D0A1C1A800F2339
S1131890FB1801221A703B1D1A883968FB1D1B783E
S11318A01800404B9847031E05D0022B01D1022398
S11318B073E0012371E0C0460C23FB183A1D128823
S11318C001321A805FE00F23FB181B78012253407A
S11318D0DBB2002B12D00C23FB181B88012213400F
S11318E09BB2002B01D1304B00E0304B012118009A
S11318F02F4B9847031E01D001234EE00C23FB1805
S11319001B88002B24D00C23FB181B8801221340B6
S11319109BB2002B01D1254900E0234980239A0082
S113192000230020234CA04703001A000123534046
S1131930DBB2002B0CD00F23FB181B780122534081
S1131940DBB2002B02D001201B4B9847012324E07B
S11319500F23FB181B7801225340DBB2002B0ED05F
S11319600020154B9847030019000F23FB180F2282
S1131970BA1812781A70002905D001230DE00F233C
S1131980FB1800221A700C23FB181B880C22BA18AF
S1131990591E1180002B96D100231800BD4605B0B6
S11319A090BDC046BD1300000807002008050020B4
S11319B0A5140000CD360000FD14000080B582B0EF
S11319C000AF78600A00BB1C1A80BB1C1A887B68B5
S11319D019000020034B984703001800BD4602B0CD
S11319E080BDC0467918000080B500AF01231800FF
S11319F0BD4680BD80B584B000AF0200FB1D1A70E7
S1131A00FB1D1B78002B08D1FB1D1A78084B5201D3
S1131A10D358984703001A0000E001220F23FB1853
S1131A201A700F23FB181B781800BD4604B080BD44
S1131A30B4B6000080B584B000AF02003960FB1D6D
S1131A401A70FB1D1B78002B0CD1FB1D1B780B4A55
S1131A505B01D31804331B683A68100098470300ED
S1131A601A0000E001220F23FB181A700F23FB1841
S1131A701B781800BD4604B080BDC046B4B6000053
S1131A8080B584B000AF0200FB1D1A70BB1D0A1C98
S1131A901A70FB1D1B78002B25D1FB1D1B78174AE0
S1131AA05B01D31808331B68002B0FD0FB1D1B7878
S1131AB0124A5B01D31808331B68BA1D1278100050
S1131AC0984703005A1E9341DBB20DE0BB1D1B78FF
S1131AD05A1E9341DBB201225340DBB21A1C01238C
S1131AE01340DBB200E000230F22BA1813700F2357
S1131AF0FB181B781800BD4604B080BDB4B60000C6
S1131B0080B584B000AF0200FB1D1A70FB1D1B786A
S1131B10002B09D1FB1D1B780A4A5B01D3180C3337
S1131B201B689847031E01D0012200E000220F2306
S1131B30FB181A700F23FB181B781800BD4604B05D
S1131B4080BDC046B4B6000080B584B000AF0200CA
S1131B50FB1D1A70FB1D1B78002B09D1FB1D1B7884
S1131B600A4A5B01D31810331B689847031E01D03F
S1131B70012200E000220F23FB181A700F23FB1828
S1131B801B781800BD4604B080BDC046B4B6000042
S1131B9080B582B000AF0200FB1D1A70FB1D1B78DC
S1131BA0002B01D1034B00E000231800BD4602B016
S1131BB080BDC046A0B6000080B584B000AF3960D7
S1131BC01100FB1D021C1A703B1D0A1C1A80FB1D10
S1131BD01B78002B0ED1FB1D1B780C4A5B01D3181C
S1131BE014331B683A1D11883A68100098470300A3
S1131BF01A0000E001220F23FB181A700F23FB18B0
S1131C001B781800BD4604B080BDC046B4B60000C1
S1131C1080B584B000AF39601100FB1D021C1A703E
S1131C203B1D0A1C1A80FB1D1B78002B0ED1FB1DCB
S1131C301B780C4A5B01D31818331B683A1D1188B2
S1131C403A681000984703001A0000E001220F23AD
S1131C50FB181A700F23FB181B781800BD4604B03C
S1131C6080BDC046B4B6000080B582B000AFEFF3CB
S1131C7010837B607B685A425341DBB23B6072B68F
S1131C80BFF35F8F034B00221A703B681800BD46F8
S1131C9002B080BD4D01002080B582B000AF7860F5
S1131CA07B685A1E9341DBB21800BD4602B080BD6A
S1131CB080B582B000AF78607B681800064B984707
S1131CC0031E05D0054B01221A70BFF35F8F62B665
S1131CD0C046BD4602B080BD991C00004D010020E5
S1131CE080B500AF0C4B00221A700C4B00221A7006
S1131CF00B4B01221A700B4B984703001A00012367
S1131D005340DBB2002B01D0002302E0064B98477E
S1131D1003001800BD4680BDB4010020B8010020B6
S1131D20B9010020E91E0000DD20000080B500AFED
S1131D30024B9847C046BD4680BDC046F520000012
S1131D40B0B500AF044B054A05490648064CA04708
S1131D5003001800BD46B0BD791D000094000020AA
S1131D60B8010020B4010020D527000080B500AFE1
S1131D7000231800BD4680BD80B500AF0F4B5B88C3
S1131D801B0A9BB2032B15D10C4B5B88FF2213401B
S1131D909BB2002B0ED1094BDB88082B0AD1074BD1
S1131DA0074A9A60054B074A1A61044B08229A8134
S1131DB0012300E000231800BD4680BD740B002001
S1131DC03C020020791E000090B587B002AF786015
S1131DD0214B1B7801225340DBB2002B01D000239E
S1131DE036E01E4B98470300FB601D4B4022002148
S1131DF018001C4B98471A4A7B68100019004023AE
S1131E001A00194B9847164A184B00934023002197
S1131E108320174CA04703005A1E9341DBB20122D2
S1131E205340DBB21A1C01231340DAB20A4B1A7076
S1131E30FB6818000F4B9847074B1B785A1E9341B9
S1131E40DBB201225340DBB21A1C01231340DBB284
S1131E501800BD4605B090BDB9010020691C000002
S1131E60BC010020F3B50000E1B50000151F00001F
S1131E70C94E0000B11C000080B500AF054B9B8922
S1131E80082B04D1044B1800044B984700E0C046CB
S1131E90BD4680BD740B00203C020020E91F0000F9
S1131EA080B582B000AF39601100FB1D021C1A70AE
S1131EB0BB1D0A1C1A70FB1D1B78002B09D13B6843
S1131EC0402B03D1054B1800054B9847054B984709
S1131ED000E0C046BD4602B080BDC046FC01002003
S1131EE0F91F0000E91E000090B583B002AF064A56
S1131EF0064B0093402300210420054CA047030017
S1131F001800BD4601B090BDFC010020A11E0000D8
S1131F10C94E000080B582B000AF39601100FB1DCE
S1131F20021C1A70BB1D0A1C1A70034B01221A7082
S1131F30C046BD4602B080BDB901002080B582B064
S1131F4000AF02003960FB1D1A70FB1D1B78012BCA
S1131F500AD0022B0FD0002B14D10E4B0D4A9169DD
S1131F603A680A439A610FE00A4B0A4AD1693A680F
S1131F700A43DA6108E0074B064A116A3A680A43E1
S1131F801A6201E0172300E000231800BD4602B0E6
S1131F9080BDC0460004004080B500AF022102208D
S1131FA0074B9847074B01221A70C046054B1B7814
S1131FB0DBB21A0001231340F8D1C046BD4680BDF0
S1131FC03D1F00000004004280B500AFBFF34F8FF7
S1131FD0034B044ADA60BFF34F8FC046FDE7C046A7
S1131FE000ED00E00400FA0580B582B000AF78602F
S1131FF0C046BD4602B080BDF0B583B000AF786086
S1132000294A7B681000190040231A00274B98477F
S1132010274B402200211800264B9847224B1B884F
S1132020022B35D002DC002B34DB38E0032B33D019
S1132030AB2B00D02EE01E4BBA221A801C4B18008A
S11320401D4B9847031E29D01C4B984700201C4B5E
S1132050984703001D0000231E001A4C642200232D
S113206028003100A04703000C0019002200164B81
S11320700024C918624108001100144C144A0023BA
S1132080A04703000C001800124B9847124B9847C6
S1132090C04604E0C04602E0C04600E0C046C04678
S11320A0BD4603B0F0BDC04688020020E1B5000083
S11320B048020020F3B50000C91D0000619B000028
S11320C095A70000ADB30000571B00006DB30000DE
S11320D0581B000001000020C91F000080B500AF9C
S11320E0034B01221A7001231800BD4680BDC0466F
S11320F04402002080B500AF044B00221A70044B48
S113210000221A70C046BD4680BDC046440200206D
S11321104602002080B500AF034B01221A70012350
S11321201800BD4680BDC0464502002080B500AF02
S1132130024B00221A70C046BD4680BD45020020F5
S113214080B500AFC046BD4680BD80B500AFC04677
S1132150BD4680BD80B582B000AF78607B68012247
S11321601A707B6800225A607B6800229A607B6840
S1132170C0229203DA607B6800221A747B68002212
S11321805A747B6801229A747B680122DA747B6832
S113219000221A757B682422002199547B68183325
S11321A00C22002118000A4B98477B68094A9A615F
S11321B07B6800229A627B680022DA627B680022D4
S11321C01A637B6800225A63C046BD4602B080BDD4
S11321D0F3B50000A086010080B500AF344A442363
S11321E00721D154324A45230721D154304A46238A
S11321F00721D1542E4A47230721D1542C4BF022D6
S11322005A602B4BF0229A61294A32230321D1547C
S1132210274A33233321D154264B9B681800264B7D
S11322209847244B9B6880225202DA60214B9B68BA
S1132230224A9A621F4B9B6801225242DA621D4B6A
S11322409B681F4A1A631B4B9B681E4A5A63194BAF
S11322509B6800229A60174B9B681B4A9A61154B36
S11322609B6800221A75134B9B680022DA74114B89
S11322701800164B98470E4B802292009A600C4A25
S113228045230021D1540A4B802292009A61104BBD
S1132290984703001A0001235340DBB2002B00D0FF
S11322A0C046034B802292009A61C046BD4680BD61
S11322B000440041CC000020552100000200080029
S11322C002000A0002000B00801A0600A1030000AD
S11322D0D522000080B582B000AF1D4B98471D4B3E
S11322E0802292005A61FB1D00221A7007E0FF2031
S11322F0194B9847FB1D1A78FB1D01321A70FB1D00
S11323001B78092BF3D988235B0100211800134B98
S1132310984703001A0001235340DBB2002B01D07D
S1132320002311E0BB1D00221A70BB1D18000C4BCA
S1132330984703001A0001235340DBB2002B01D05D
S1132340002301E0C04601231800BD4602B080BD51
S1132350912300000044004165230000ED240000A7
S11323607D24000080B582B000AF0200FB1D1A700E
S1132370FB1D1A78044B11001800044B9847030006
S11323801800BD4602B080BDCC000020FB03000055
S113239080B500AF034B1800034B9847C046BD46B9
S11323A080BDC046CC000020C903000080B584B0C5
S11323B000AF78600A00FB1C1A700F23FB18002280
S11323C01A7038E07B685A1C7A600E22BA181B789F
S11323D013700D23FB1800221A7027E00F23FA183C
S11323E00F23FB181B78DB1813700E23FA180F2326
S11323F0FB1812781B785340DBB25BB2002B07DA70
S11324000F23FB180F22BA18127809214A401A70B8
S11324100E23FA180E23FB181B78DB1813700D23F8
S1132420FB181A780D23FB1801321A700D23FB18C0
S11324301B78072BD2D9FB1C1B78FA1C591E117070
S1132440002BBFD10F23FB181B785B005BB201226A
S113245013435AB20F23FB181A700F23FB181B786F
S11324601800BD4604B080BD80B500AF024B1B68A8
S11324701800BD4680BDC0463C03002080B584B032
S113248000AF78607B6800221A70D5235B00144A81
S113249019001000134B984703001A0001235340FE
S11324A0DBB2002B01D0012315E00F4B984703004A
S11324B0FB60FB68013301D101230CE0FB681B05C1
S11324C01A0DD5235B009A4201D0002303E07B68F8
S11324D001221A7001231800BD4604B080BDC04615
S11324E008550000ED2400006924000090B585B073
S11324F002AF78603960396878680023009300235C
S11325000022034CA04703001800BD4603B090BD51
S11325101525000090B58BB000AFF860B9601900C4
S1132520BB1D1A803B1D0A1C1A802423FB18FF22A2
S11325301A702223FB18FF221A802123FB18002281
S11325401A70FB68DBB23F221340DBB24022134314
S1132550DAB21823FB181A70BB681B0EDAB2182300
S1132560FB185A70BB681B0CDAB21823FB189A705C
S1132570BB681B0ADAB21823FB18DA70BB68DAB23C
S11325801823FB181A711823FB1805211800704B27
S1132590984703001A001823FB185A712423FB18C8
S11325A01B7818006B4B98472623FB1800221A70DF
S11325B00FE02623FB181B781822BA18D35C1800E6
S11325C0644B98472623FB181A782623FB180132FC
S11325D01A702623FB181B78052BEAD92023FB1835
S11325E0FF221A702223FB181B88DBB22022BC189E
S11325F01800584B9847030023702723FB18072221
S11326001A702223FB181B88DBB22022BC18180086
S1132610504B9847030023702023FB181B785BB2B0
S1132620002B11DA2723FB182722BA181278013A53
S11326301A702723FB181B78002BE2D12123FB18E7
S113264002221A7000237FE0C0462023FB181A7868
S1132650414B1A602023FB181B780822134005D035
S11326602123FB1806221A7000236DE02023FB1897
S11326701B780422134005D02123FB1809221A7069
S1132680002361E02023FB181B780122934305D02B
S11326902123FB1801221A70002355E0FA688023D5
S11326A09B0113400ED02D4B984703001A000123C1
S11326B05340DBB2002B05D02123FB1803221A70F0
S11326C0002341E0FA6880239B0013400ED02223AC
S11326D0FB181B88DBB218001E4B984703001A0036
S11326E01D4B1A601C4B1A681B4B1A60FA68802336
S11326F0DB00134027D02523FB1800221A7015E0B5
S11327002523FB181C782223FB181B88DBB2180036
S1132710104B984703001A001423FB181A5525235D
S1132720FB181A782523FB1801321A702523FB188D
S11327301B78032BE4D97A69074B1A60064B1B6894
S11327401ABA054B1A6001231800BD460BB090BDA0
S1132750AD230000652300003C0300206127000036
S113276090B583B000AFFB1CFF221A703B00FF2220
S11327701A803B001B88DBB2FC1C1800134B9847E3
S113278003002370124B7B603B001B88DBB2FC1CF4
S113279018000E4B9847030023703B001B88DBB2E4
S11327A0FC1C1800094B9847030023707B685A1ED1
S11327B07A60002B01D1002304E0FB1C1B78FF2B63
S11327C0EBD101231800BD4603B090BD6523000082
S11327D0400D030080B584B000AFF860B9607A6042
S11327E03B60354B1B785BB2002B32DA324B1B78E3
S11327F01A006023134009D12F4B5B78062B05D1B7
S11328007B6818002D4B9847030051E02A4B1B7836
S11328101A0060231340202B1BD1274B5B78022B1B
S113282007D0032B0DD0012B13D13B68984703002D
S11328303EE0214BFA689A601F4B01229A810123E2
S113284036E01D4BBA689A601B4B01229A81012322
S11328502EE0194B1B785BB2002B28DB164B1B7840
S11328601A0060231340202B21D1134B5B780A2BD1
S113287007D00B2B0ED0092B19D13B6898470300C6
S113288016E00D4B5B881B0A9BB2DAB2FB681A7028
S113289001230DE0084BDB88002B01D0002307E067
S11328A0054B5B88DAB2BB681A70012300E0002391
S11328B01800BD4604B080BD740B0020C128000080
S11328C080B584B000AF7860254B98470300093386
S11328D0FB60FB685B78212B01D000233BE0214B9C
S11328E05B881B0A9BB2DBB2212B13D11D4BFA6808
S11328F09A60FB681B789AB21A4BDB88181C111C6F
S11329008AB283B29A4200D9011C8AB2154B9A81C9
S1132910012320E0FB689A79124B5B881B0A9BB267
S1132920DBB29A4216D10F4B7A689A60FB68DA7967
S11329301B7A1B0213439AB20A4BDB88181C111C26
S11329408AB283B29A4200D9011C8AB2054B9A8199
S1132950012300E000231800BD4604B080BDC0463A
S1132960C5370000740B002080B582B000AF224B45
S113297000221A70214B00221A70214B01221A7076
S1132980204B01221A70204B984703001A001F4B5A
S11329901A701E4B1B78002B01D1002328E01B4B1F
S11329A01B78013BDAB2194B1A70194B9847030094
S11329B01A0001235340DBB2002B01D0002317E09F
S11329C0FB1D00221A700AE0FB1D1B780021180071
S11329D0104B9847FB1D1A78FB1D01321A700B4BE4
S11329E01B78FA1D12789A42EED90B4B98470123B3
S11329F01800BD4602B080BD770300207603002096
S1132A00F9000020FA000020E9190000600300200A
S1132A1015210000811A0000952B000080B500AF3D
S1132A20064B00221A70064B01221A70054B012234
S1132A301A70054B9847C046BD4680BD77030020F9
S1132A40F9000020FA0000202D21000080B500AF1D
S1132A50294B1B785BB2002B1EDA274B1B781A001C
S1132A6060231340202B17D1234B5B78FE2B13D10B
S1132A70214BDB88012B01D000233AE01E4B5B88FD
S1132A80002B01D0002334E01B4B1C4A9A601A4BE4
S1132A9001229A8101232CE0174B1B785BB2002B97
S1132AA026DB154B1B781A0060231340202B1FD103
S1132AB0114B5B78FF2B1BD10F4BDB88002B01D014
S1132AC0002316E00C4B5B88002B01D0002310E0A0
S1132AD00B4B00221A700B4B00221A7002200A4B77
S1132AE098478120084B9847084B9847012300E0FA
S1132AF000231800BD4680BD740B00206003002035
S1132B007603002077030020514A0000952B000033
S1132B1080B500AF00231800BD4680BD80B500AF6E
S1132B20094B1B7801225340DBB2002B08D1022051
S1132B30064B9847064B19000220064B984700E0C5
S1132B40C046BD4680BDC04676030020214D00002E
S1132B501D2B0000F14D000080B500AF094B1B7820
S1132B6001225340DBB2002B08D18120064B984749
S1132B70064B19008120064B984700E0C046BD462D
S1132B8080BDC04676030020214D0000592B000073
S1132B90F14D000090B583B002AF0C4A0C4B00938A
S1132BA01F23012102200B4CA04703001A0001231C
S1132BB05340DBB2002B04D0074B19000220074B13
S1132BC09847C046BD4601B090BDC04640030020B2
S1132BD0E12B0000C94E0000952B0000F14D0000D0
S1132BE080B582B000AF39601100FB1D021C1A7061
S1132BF0BB1D0A1C1A70FB1D1B78002B5BD13B68A4
S1132C001F2B04D12E4B1B682E4A934207D02E4B08
S1132C1001221A702D4B98472D4B98474CE0284BB6
S1132C205B7B0F221340DAB2254B5A73244B5A7B39
S1132C30284B1B789A4204D9274B9847274B98472F
S1132C403AE01F4B9A68264B9A601D4BDB7B5A2B4C
S1132C502BD89A00234BD3181B689F46224B9847C6
S1132C602AE0224B984727E00020214B984723E095
S1132C7001201F4B98471FE01E4B98471CE01E4B3A
S1132C80984719E01D4B984716E01D4B984713E0F1
S1132C901C4B9847114B98470EE001201A4B98475C
S1132CA00AE00020184B984706E0184B98470B4B56
S1132CB09847C04600E0C046BD4602B080BDC0464D
S1132CC04003002055534243760300201D2B00008F
S1132CD0592B000060030020E92F0000F92D0000AB
S1132CE0EC000020D4B60000213000008130000048
S1132CF015320000ED31000039340000C533000006
S1132D0089330000612F0000D93400000530000031
S1132D1080B582B000AF78600A00FB1C1A700C4BBF
S1132D201A7BFB1C1B785340DBB25BB2002B04DB29
S1132D30084B9A687B689A4205D2074B9847074B21
S1132D409847002300E001231800BD4602B080BD6F
S1132D5040030020EC000020E92F0000F92D0000C2
S1132D6090B585B002AF78600A00FB1C1A70FB1C9A
S1132D7019787A680A4B00930B0001218120094CD1
S1132D80A04703001A0001235340DBB2002B03D0F9
S1132D90054B9847054B9847C046BD4603B090BDC8
S1132DA0B12D0000C94E0000B52F0000F92D000020
S1132DB080B582B000AF39601100FB1D021C1A708F
S1132DC0BB1D0A1C1A70FB1D1B78002B0AD1074B74
S1132DD09847074B9A683B68D21A054B9A60054B93
S1132DE0984700E0C046BD4602B080BD612F000098
S1132DF0EC000020F92D000080B500AF0E4B9B685D
S1132E00002B0BD00D4B1B7B5BB2002B03DA812014
S1132E100B4B984702E00220094B9847074B5A682E
S1132E20054B5A60044B9A68034B9A60054B9847CC
S1132E30C046BD4680BDC046EC00002040030020D3
S1132E40214D0000492E000090B583B002AF0C4A1A
S1132E500C4B00930D23002181200B4CA047030051
S1132E601A0001235340DBB2002B04D0074B190096
S1132E708120074B9847C046BD4601B090BDC0466F
S1132E80EC000020952E0000C94E0000492E0000E1
S1132E90F14D000080B582B000AF39601100FB1D18
S1132EA0021C1A70BB1D0A1C1A70034B9847C046BB
S1132EB0BD4602B080BDC046952B000080B500AF72
S1132EC0074B122200211800064B9847044BF022AE
S1132ED01A70034B0A22DA71C046BD4680BDC04653
S1132EE064030020F3B5000080B582B000AF3A60FF
S1132EF0FB1D021C1A703B1D0A1C1A80154B9847B7
S1132F00154B01221A73154BFA1D12789A703B68FF
S1132F101B0EDAB2114BDA703B681B0CDAB20F4BA2
S1132F201A713B681B0ADAB20C4B5A713B68DAB26D
S1132F300A4B9A713B1D1B881B0A9BB2DAB2074BE2
S1132F401A733B1D1B88DAB2044B5A73C046BD4644
S1132F5002B080BDBD2E0000EC0000206403002000
S1132F6080B500AF034B9847034B00221A73C04649
S1132F70BD4680BDBD2E0000EC00002080B500AF32
S1132F80E8239B01002219000220024B9847C04607
S1132F90BD4680BDE92E000080B500AFA0239B0193
S1132FA0002219000620024B9847C046BD4680BD4A
S1132FB0E92E000080B500AF002200210420024B5E
S1132FC09847C046BD4680BDE92E000080B500AFDD
S1132FD09C239B01002219000720024B9847C046FE
S1132FE0BD4680BDE92E000080B500AF90239B0153
S1132FF0002219000520024B9847C046BD4680BDFB
S1133000E92E000080B500AF80239B010022190047
S11330100520024B9847C046BD4680BDE92E0000FE
S113302080B582B000AFFB1D114AD27C1A70FB1D23
S11330301B78122B02D9FB1D12221A70FB1D1B7860
S1133040802118000B4B984703001A0001235340BA
S1133050DBB2002B07D1FB1D1A78074B11001800B7
S1133060064B984700E0C046BD4602B080BDC0464E
S113307040030020112D000064030020612D000096
S113308080B582B000AFFB1D3B4AD27C1A70FB1D99
S11330901B78242B02D9FB1D24221A70FB1D1B78DC
S11330A080211800354B984703001A000123534030
S11330B0DBB2002B5BD1304B1B7C1A000323134083
S11330C003D12D4B5B7C002B04D02D4B98472D4B0B
S11330D098474DE0284B5B7B18002B4B9847031E09
S11330E001D0802200E00022284B5A70224B5B7BE7
S11330F01800274B984703005A1C244B1033110027
S113310010221800234B9847BB1D00221A7012E0AE
S1133110BB1D1B781D4AD3181B7C002B1BD0BB1D69
S11331201B781A4AD3181B7C222B14D0BB1D1A7887
S1133130BB1D01321A70BB1D1B78102BE8D10AE0AD
S1133140BB1D1B78114AD31820221A74BB1D1A7890
S1133150BB1D01321A70BB1D1B78102BF0D1FB1D57
S11331601A780A4B110018000B4B984700E0C04630
S1133170BD4602B080BDC04640030020112D0000B2
S1133180E92F0000F92D0000491B0000FC0000207D
S1133190911B0000E1B50000612D000080B500AF77
S11331A00D4B5B7B18000D4B98470300022B08D096
S11331B0032B03D0002B07D1012309E0084B9847C8
S11331C005E0084B984702E0074B9847C0460023A8
S11331D01800BD4680BDC04640030020F51900001C
S11331E0992F00007D2F0000B52F000080B500AF9F
S11331F0054B9847031E01D0044B9847044B98474E
S1133200C046BD4680BDC0469D310000612F000010
S1133210F92D000080B586B000AF0200FB1D1A70C6
S1133220514B142200211800504B9847FB1D1B786A
S1133230002B0BD01623FB184D4AD27D1A704D4B30
S11332403B611723FB1808221A700AE01623FB18A7
S1133250474AD27C1A70484B3B611723FB1804225F
S11332601A70434B5A7C0F23FB183F210A401A70F3
S11332700F23FB181B781C2B04D00F23FB181B787F
S11332803F2B0FD13B691C221A703B690A225A70EA
S11332903B690522DA701723FB181722BA18127833
S11332A00C321A701623FA181723FB1812781B789D
S11332B09A4205D91623FB181722BA1812781A70E5
S11332C01623FB181B78802118002C4B9847030009
S11332D01A0001235340DBB2002B41D1244B5B7B0A
S11332E01800274B9847031E01D0802200E00022DB
S11332F00E23FB181A70FB1D1B78002B1BD0172301
S1133300FB181B789BB2023B9BB21B0A9BB21AB2FE
S11333101723FB181B789BB2023B9BB21B021BB208
S113332013431BB29AB2104B1A800F4B0E22BA18D9
S11333301278DA700BE01723FB181B78013BDAB222
S1133340094B1A70084B0E22BA1812789A70162379
S1133350FB181A78044B110018000A4B984700E038
S1133360C046BD4606B080BD84030020F3B500000E
S1133370400300208C03002088030020112D00004E
S1133380011B0000612D000080B582B000AFFB1D61
S1133390084AD27C1A70FB1D1B78002B02D1064B05
S11333A0984701E0054B9847054B9847C046BD46F2
S11333B002B080BD40030020612F0000E92F00000F
S11333C0F92D000080B582B000AF174BDB7C1A00EA
S11333D001231A40FB1D511E8A411A70124BDB7CDB
S11333E01A0002231A40BB1D511E8A411A70BB1DCC
S11333F01B78002B10D00C4B587BFB1D1B785A1EDE
S11334009341DBB201225340DBB21A1C0123134067
S1133410DBB21900054B9847054B9847054B984775
S1133420C046BD4602B080BD40030020811A0000A2
S1133430612F0000F92D000080B500AF8021082025
S11334401C4B984703001A0001235340DBB2002BA6
S11334502DD1194B5B7B194A11001800184B984762
S11334600300022B09D0032B02D0002B0FD009E05C
S1133470144B9847144B98471AE0144B9847124B37
S1133480984715E0124B98470F4B984710E0C046F9
S11334900A4B802292025A60084B1B681ABA074BE7
S11334A01A60064B082118000A4B984700E0C046F2
S11334B0BD4680BD112D000040030020980300206C
S11334C0351A0000992F0000F92D00007D2F00000F
S11334D0B52F0000612D000080B584B000AF02005C
S11334E0FB1D1A70FB1D1B7801225340DBB2002B1D
S11334F00BD0234B5B7B1800224B9847031E04D050
S1133500214B9847214B984737E0214B1C4A527C6A
S11335101A70204B1A4A927C1A701F4B184AD27C9C
S11335201A701E4B164A127D1A701D4B144A927D56
S11335301A701C4B124AD27D1A701A4B1B885B02FC
S1133540FB60FB1D1B78002B01D0802300E00023CF
S1133550FA6819001000144B984703001A0001235D
S11335605340DBB2002B07D1104BFA1D12781A70AE
S11335700F4B01221A7000E0C046BD4604B080BD66
S113358040030020011B0000CD2F0000F92D000096
S11335907F0300207E0300207D0300207C030020A5
S11335A08103002080030020112D000078030020F7
S11335B07703002090B583B000AF284B1B7801221D
S11335C05340DBB2002B01D0002343E0234B002205
S11335D01A70234B00221A70224B1B78002B0CD03C
S11335E0214B587B214B1968214B1B88FC1D1A0069
S11335F0204B9847030023700BE01B4B587B1B4B5D
S113360019681B4B1B88FC1D1A001B4B98470300B1
S11336102370134B1B78DBB2002B04D0104B002219
S11336201A70012316E0FB1D1B78022B09D0032B13
S113363004D0002B08D1114B984708E0104B984751
S113364005E0104B984702E00F4B9847C0460F4BDC
S1133650984701231800BD4603B090BD77030020AE
S1133660FA00002078030020400300207C0300209F
S113367080030020B91B0000111C0000612F000012
S1133680992F00007D2F0000B52F0000F92D0000B8
S113369080B582B000AF39601100FB1D021C1A70A6
S11336A0BB1D0A1C1A70FB1D1B785A1E9341DAB20B
S11336B0044B1A70044B01221A70C046BD4602B076
S11336C080BDC04608090020F900002090B587B0ED
S11336D002AFB9607A603B600F23FB18021C1A70BA
S11336E02F4B1B78DBB201225340DBB2002B01D0FD
S11336F0002351E02A4B00221A700F23FB181B7879
S1133700002B01D0812000E002203B68002B01D077
S11337103B6800E0234B7968BA6800930B000021F2
S1133720214CA04703001A0001235340DBB2002BB5
S113373004D01B4B01221A7000232DE03B68002BA0
S113374023D1C046164B1B78DBB201225340DBB2B7
S1133750002BF7D1154B1B78DBB2002B01D00023D3
S11337601AE0134B9A687B68D21A114B9A600F4B7C
S11337701B78DBB25A1E9341DBB201225340DBB209
S11337801A1C01231340DBB206E0094B9A687B68DC
S1133790D21A074B9A6001231800BD4605B090BDAC
S11337A0F900002091360000C94E000008090020ED
S11337B0EC00002080B500AF014B1800BD4680BD71
S11337C040B8000080B500AF024B1B681800BD462E
S11337D080BDC046B003002080B500AF074B1B6816
S11337E01A68064B1B681B689978DB781B020B432D
S11337F09BB2D3181800BD4680BDC046AC03002060
S113380080B584B000AF78600A00FB1C1A70144BBA
S113381098470300FB607B681B781A007B689B1841
S11338207B6011E07B685B78042B12D07B685B784B
S1133830FA1C12789A4201D17B680CE07B681B78F1
S11338401A007B689B187B60FA687B689A42E9D807
S113385000E0C04600231800BD4604B080BDC04649
S1133860D937000080B584B000AF0200FB1D1A7088
S1133870BB1D0A1C1A70204B1B78002B01D100239E
S113388036E01E4B1B681B681B79FA1D12789A429E
S113389001D300232CE0194B1B681A68184B1A60DB
S11338A0184B98470300FB601CE0154B1B685B78C2
S11338B0042B0FD1124B1B689B78FA1D12789A4285
S11338C008D10F4B1B68DB78BA1D12789A4201D1DC
S11338D001230DE00A4B1A68094B1B681B78D218A8
S11338E0074B1A60064B1B68FA689A42DDD800231E
S11338F01800BD4604B080BDA8030020AC0300201E
S1133900B0030020D937000080B584B000AF0200B6
S1133910FB1D1A70FB1D1B7800211800214B9847D2
S113392003001A0001235340DBB2002B01D0002313
S113393034E01D4B1B685A68FB1D1B789B00D31891
S11339401B68BB60BB68DB68984703001A00FB1D5B
S11339501B7811001800134B984703001A00012329
S11339605340DBB2002B01D0002317E00F4B1B6840
S1133970FB60FB68052118000D4B98470300FB60B2
S1133980FB68002B05D0FB689B781800094B98470F
S1133990EFE7C046BB685B68984701231800BD4643
S11339A004B080BD65380000AC030020B0030020E3
S11339B001380000C14A000080B584B000AF0200A5
S11339C0FB1D1A70BB1D0A1C1A70BB1D1A78FB1D47
S11339D01B78110018001F4B984703001A0001239D
S11339E05340DBB2002B01D000232EE01A4B1B689E
S11339F0FB60FB6805211800184B98470300FB6027
S1133A00FB68002B15D0FB689878FB68D978FB68B5
S1133A101A795B791B0213439BB21A00104B984727
S1133A2003001A0001235340DBB2002BE1D0002332
S1133A300BE0C0460B4B1B685A68FB1D1B789B00B0
S1133A40D3181B681B68984703001800BD4604B0D0
S1133A5080BDC04665380000B00300200138000076
S1133A604D4B0000AC03002080B582B000AF124B78
S1133A701B78002B15D0FB1D00221A7009E0FB1DDA
S1133A801B7818000D4B9847FB1D1A78FB1D01325B
S1133A901A700B4B1B681B681B79FA1D12789A422B
S1133AA0EDD3054B00221A70064B01221A80C04642
S1133AB0BD4602B080BDC046A803002009390000FD
S1133AC0AC030020A003002080B582B000AF174BE8
S1133AD01B78002B25D0FB1D00221A7019E0144B13
S1133AE01B685A68FB1D1B789B00D3181B681B6955
S1133AF0002B09D00E4B1B685A68FB1D1B789B00DA
S1133B00D3181B681B699847FB1D1A78FB1D0132EB
S1133B101A70074B1B681B681B79FA1D12789A42AE
S1133B20DDD3C046BD4602B080BDC046A803002018
S1133B30AC03002080B500AF074BDB88022B01D01B
S1133B40002305E0054B02211800054B984701238B
S1133B501800BD4680BDC046740B0020A0030020A1
S1133B60F951000080B500AF0C4BDB88022B01D06B
S1133B7000230FE0094B9B88DBB21800084B9847E1
S1133B8003009AB2074B1A80064B02211800064B19
S1133B90984701231800BD4680BDC046740B002021
S1133BA0F54C0000B4030020F951000080B500AFCB
S1133BB00B4BDB88002B01D000230DE0084B5B8806
S1133BC0012B08D1074B1B88022293439AB2054B61
S1133BD01A80012300E000231800BD4680BDC046C2
S1133BE0740B0020A003002080B500AF0A4BDB88D3
S1133BF0002B01D000230CE0074B5B88002B07D17E
S1133C00054B9B88DBB21800044B9847030000E087
S1133C1000231800BD4680BD740B0020794D0000C0
S1133C2080B500AF084BDB88002B01D0002307E0F0
S1133C30054B5B88012B02D0C046002300E0002323
S1133C401800BD4680BDC046740B002080B500AF8F
S1133C500D4BDB88002B01D0002312E00A4B5B885C
S1133C60002B0DD1084B9B88DBB21800074B9847FB
S1133C70054B9B88DBB21800054B9847030000E016
S1133C8000231800BD4680BD740B0020514A00007B
S1133C90214D000080B500AF054B5B88DBB27F226D
S1133CA01340DBB21800034B9847C046BD4680BDA5
S1133CB0740B0020B151000080B500AF064BDB88C7
S1133CC0002B01D0002303E0034B044A1A610123B3
S1133CD01800BD4680BDC046740B0020953C000012
S1133CE080B584B000AFFB1D00221A70334B5B8893
S1133CF01A00FF231340012B0ED002DC002B05D049
S1133D001EE0022B0ED0032B12D019E02C4B042101
S1133D1018002C4B984715E0FB1D08221A702A4BFB
S1133D20BB600FE0FB1D07221A70284BBB6009E043
S1133D30FB1D02221A70264B98470300BB6001E06A
S1133D40002337E0FB1D1B78002B32D00F23FB1818
S1133D5000221A7016E00F23FB181B780F22BA18E2
S1133D601278B9688A18127891B21A4A5B00D3188B
S1133D7002330A1C1A800F23FB181A780F23FB182E
S1133D8001321A700F23FA18FB1D12781B789A421D
S1133D90E1D3FB1D1B780133DBB2DB18DAB20D4B28
S1133DA01A700C4B1B789AB20A4B11001800054B81
S1133DB0984701231800BD4604B080BD740B002051
S1133DC020010020F95100002401002030010020CE
S1133DD0B53700003801002080B582B000AF394B00
S1133DE05A88FB1D1A70374B5B881B0A9BB2DBB2E7
S1133DF0022B13D002DC012B05D051E0032B44D05D
S1133E000F2B2FD04CE0304B1A682F4B1B681B78BC
S1133E109BB2190010002D4B984744E02A4B1B68B5
S1133E205B7CFA1D12789A4201D3002346E0264BAC
S1133E305A68FB1D1B78DB00D3181868224B5A689C
S1133E40FB1D1B78DB00D3181B689A78DB781B02F8
S1133E5013439BB219001D4B98471A4B9B680222CF
S1133E605A7020E0184B9B68002B01D1002325E0F9
S1133E70154B9868144B9B689A78DB781B021343A4
S1133E809BB21900114B98470DE0114B9847030062
S1133E901A0001235340DBB2002B03D000230DE0B2
S1133EA000230BE0C046074BDA88064B9B899A42F5
S1133EB003D2044BDA88034B9A8101231800BD46D0
S1133EC002B080BD740B002074000020F951000082
S1133ED0E13C000080B500AF074BDB88012B01D02B
S1133EE0002305E0054B01211800054B98470123E9
S1133EF01800BD4680BDC046740B0020A8030020F6
S1133F00F951000080B582B000AF2A4BDB88002B4A
S1133F1001D000234AE0284B9847031E01D1002317
S1133F2044E0244B5B881A00FF231A40234B1B6890
S1133F305B7C9A4201DD002338E0214B98471D4BFE
S1133F405B88DAB21F4B1A701E4B1B78002B01D111
S1133F5001232BE0194B5A681A4B1B781A498C46DB
S1133F606344DB00D218194B1A60FB1D00221A703F
S1133F7013E0FB1D1B7800211800154B9847030024
S1133F801A0001235340DBB2002B01D000230DE0C3
S1133F90FB1D1A78FB1D01321A700C4B1B681B6841
S1133FA01B79FA1D12789A42E3D301231800BD4607
S1133FB002B080BD740B0020DD51000074000020AD
S1133FC0693A0000A8030020FFFFFF1FAC03002094
S1133FD0B939000080B582B000AF214BDB88012BDA
S1133FE001D0002338E01F4B1B78002B01D10023A4
S1133FF032E01B4B9A88FB1D1A701B4B1B681B6815
S11340001B79FA1D12789A4201D3002324E0FB1D88
S11340101B7800211800154B984703001A00012350
S11340205340DBB2002B01D0002315E00E4B1B687C
S11340305A68FB1D1B789B00D3181B683B603B68C8
S1134040DB68984703001A00094B1A70084B0121DA
S11340501800084B984701231800BD4602B080BDE4
S1134060740B0020A8030020AC0300206538000076
S1134070A4030020F951000080B582B000AF174BB3
S1134080DB88002B01D0002324E0154B1B78002B88
S113409001D100231EE0114B9A88FB1D1A700F4BAF
S11340A05A88BB1D1A70FB1D1B7818000D4B9847CE
S11340B003001A0001235340DBB2002B01D000237C
S11340C008E0BB1D1A78FB1D1B7811001800064B75
S11340D0984703001800BD4602B080BD740B002051
S11340E0A803002009390000B939000080B500AFE9
S11340F0474B1B785BB2002B40DA454BDB88002B27
S113410001D1002381E0424B1B781A001F23134086
S113411014D13F4B5B78062B08D0082B0AD0002B18
S113412000D00BE03B4B984703006EE03A4B9847B6
S113413003006AE0394B9847030066E0344B1B7870
S11341401A001F231340012B08D1314B5B780A2B33
S113415000D003E0324B9847030056E02C4B1B7809
S11341601A001F231340022B4ED1294B5B78002BDE
S113417000D049E02B4B9847030046E0244B1B78C2
S11341801A001F23134019D1214B5B78092B14D833
S11341909A00254BD3181B689F46244B984703006D
S11341A033E0234B984703002FE0224B984703004A
S11341B02BE0214B9847030027E0C046144B1B78A3
S11341C01A001F231340012B08D1114B5B780B2BD2
S11341D000D003E0194B9847030016E00C4B1B7802
S11341E01A001F231340022B0ED1094B5B78012BBD
S11341F002D0032B04D007E0114B9847030004E0DE
S1134200104B9847030000E000231800BD4680BD12
S1134210740B0020353B0000D93D0000D53E000062
S1134220D53F0000653B000044B80000B93C0000E5
S1134230AD3B0000213C0000053F00007940000038
S1134240E93B00004D3C000080B582B000AF244B38
S11342501B78002B01D100233DE0224B9A88FB1DE3
S11342601A70214B1B681B681B79FA1D12789A423D
S113427001D300232FE0FB1D1B78002118001B4BEA
S1134280984703001A0001235340DBB2002B01D0EE
S1134290002320E0144B1B685A68FB1D1B789B000D
S11342A0D3181B683B603B68DB68984703001A001F
S11342B0FB1D1B78110018000C4B984703001A00D3
S11342C001235340DBB2002B01D0002303E03B6801
S11342D09B68984703001800BD4602B080BDC046E5
S11342E0A8030020740B0020AC03002065380000F4
S11342F080B582B000AF224B1B78002B01D1002384
S113430039E0204B9A88FB1D1A70FB1D00221A709D
S113431028E01D4B1B685A68FB1D1B789B00D318B3
S11343201B683B603B68DB68984703001A00FB1D71
S11343301B7811001800154B984703001A0001233D
S11343405340DBB2002B01D0002314E03B689B6890
S11343509847031E01D001230DE0FB1D1A78FB1DB5
S113436001321A70084B1B681B681B79FA1D1278FE
S11343709A42CED300231800BD4602B080BDC04689
S1134380A8030020740B0020AC0300206538000053
S113439080B500AF1E4B00229A811D4B00221A618A
S11343A01B4B00225A611A4B1B785BB2002B05DAB7
S11343B0174BDB88002B01D1002326E0144B1B781C
S11343C01A006023134005D1124B9847031E01D0F5
S11343D001231AE00E4B1B781A001F231340012BF4
S11343E005D10D4B9847031E01D001230DE0084B66
S11343F01B781A001F231340022B05D1074B984743
S1134400031E01D0012300E000231800BD4680BD37
S1134410740B0020ED40000049420000F14200000E
S113442080B582B000AFEFF310837B607B685A42A3
S11344305341DBB23B6072B6BFF35F8F034B002284
S11344401A703B681800BD4602B080BD4D010020C3
S113445080B582B000AF78607B685A1E9341DBB2AE
S11344601800BD4602B080BD80B582B000AF786050
S11344707B681800064B9847031E05D0054B0122A4
S11344801A70BFF35F8F62B6C046BD4602B080BDEE
S1134490514400004D01002080B584B000AF0200FB
S11344A0FB1D1A70FB1D1B780C4AD35CFF2B00D13B
S11344B0FEE70B4B98470300FB60FB1D1B78074A84
S11344C0D25C0132D1B2054AD154FB681800054BC5
S11344D09847C046BD4604B080BDC046EC0C0020E1
S11344E0214400006944000080B584B000AF02009C
S11344F0FB1D1A70FB1D1B780C4AD35C002B00D1EA
S1134500FEE70B4B98470300FB60FB1D1B78074A33
S1134510D25C013AD1B2054AD154FB681800054B6C
S11345209847C046BD4604B080BDC046EC0C002090
S1134530214400006944000080B582B000AF786077
S11345407B681A687B681B681B899BB201218B43BB
S11345509BB21381C046BD4602B080BD80B582B017
S113456000AF78607B681B689B7A5B065B0EDBB2EE
S11345701800BD4602B080BD80B582B000AF78603F
S11345800A00FB1C1A707B681B68FA1C12788021D5
S113459049420A43D2B29A72C046BD4602B080BDB7
S11345A080B500AF0C4B9B8C9BB21A0020231340A8
S11345B007D1C046084BDB68D0221340D02BF9D179
S11345C006E0C046044BDB6810221340102BF9D1DF
S11345D0C046BD4680BDC0460008004080B584B0DA
S11345E000AF0200FB1D1A700C23FB18154A126859
S11345F01A60154B1B78FA1D12789A421DD0FB1DC8
S11346001B78002B07D0FB1D1B780C22BA18D35C37
S113461018000E4B98470C4B1B78002B08D00A4B04
S11346201B781A000C23FB189B5C1800084B984756
S1134630054BFA1D12781A7000E0C046BD4604B05E
S113464080BDC0466CB800005C04002099440000A2
S1134650E944000080B582B000AF0200FB1D1A706F
S1134660FB1D1B78002B03D0FB1D1B78802B01D175
S1134670002312E0FB1D1B780F2213405B00FA1D80
S1134680127852B2D2B2D209D2B29B189A1E130037
S11346909B009B189B00034A9B181800BD4602B060
S11346A080BDC046BC03002090B589B000AF7860DF
S11346B07B68BB611723FB18BA6992791A701723B8
S11346C0FB181B781800544B984703003B610F23D9
S11346D0FB181722BA1812780F210A401A700C23FB
S11346E0FB183A69128A1A800A23FB18BA6952889D
S11346F01A803B69DA680A23FB181B88D2183B69C5
S1134700DA603B69DA683B699B689A4254D03B693A
S11347109B6899B23B69DB689AB21E23FB188A1A1C
S11347201A801E23FB181B883C4A93420DD90C2384
S1134730FB181A8839483A4B110098470B009AB273
S11347401E23FB1835498A1A1A803B699B7C022276
S11347501340DBB2002B0ED01E23FA180C23FB18D7
S1134760128819882F4B100098470B009BB2002B1E
S113477001D1012300E00023DBB21A1C0123134002
S1134780DAB23B6901210A4090189A7C02218A43DB
S1134790111C021C0A439A743B695A683B69DB6822
S11347A0D2181E23FB181C880F23FB1819781E48E7
S11347B023001E4CA0472BE03B699B7C0222134044
S11347C0DBB2002B11D03B699A7C02218A439A7494
S11347D03B695A683B69DB68D2180F23FB181978C8
S11347E011480023114CA04712E03B699A7C012137
S11347F08A439A743B691B68002B09D03B691C6887
S11348003B69D9681723FB181B781A000020A047BE
S1134810BD4609B090BDC04655460000FF1F0000CC
S1134820E5B2000011B100000C0A0020456E000042
S1134830B0B588B000AF78607B68BB611723FB1804
S1134840BA6992791A701723FB181B781800664B03
S1134850984703003B610F23FB181722BA181278FC
S11348600F210A401A700C23FB183A69128A1A8025
S11348700A23FB18BA6912881A803B699B7C0422BC
S11348801340DBB2002B19D03B695A683B69DB68E3
S1134890D4180F23FB181B78013B9A01534BD518EE
S11348A03B699A680C23FB181988514B10009847F0
S11348B00B001A00290020004E4B98473B69DA6828
S11348C00A23FB181B88D2183B69DA603B69DA6853
S11348D03B699B689A4203D93B699A683B69DA60F1
S11348E0BB699B880A22BA1812889A4265D13B692F
S11348F0DA683B699B689A425FD03B699B6899B2CE
S11349003B69DB689AB21E23FB188A1A1A801E239D
S1134910FB181B88384A93420ED90C23FB181A88BB
S11349203548364B110098470B009AB21E23FB18EA
S113493031498A1A1A8011E01E23FA180C23FB1835
S1134940128819882A4B100098470B009AB21E232C
S1134950FB181E21791809888A1A1A801E23FA184E
S11349600C23FB1812881B889A4216D23B699A7C46
S113497004210A439A740F23FB181B78013B9A0104
S11349801A4BD2180C23FB181C880F23FB18197818
S11349901B4823001B4CA04722E03B695A683B6933
S11349A0DB68D2181E23FB181C880F23FB18197808
S11349B013482300134CA04712E03B699A7C012161
S11349C08A439A743B691B68002B09D03B691C68B5
S11349D03B69D9681723FB181B781A000020A047ED
S11349E0BD4608B0B0BDC046554600000C090020C5
S11349F011B10000E1B50000FF1F0000E5B20000A6
S1134A000C0A0020F96E000080B584B000AF786015
S1134A1039603B68FB600B23FB18FA6892791A70C3
S1134A200B23FB181B785BB2002B04DA3B681800DD
S1134A30054B984703E03B681800044B9847C04671
S1134A40BD4604B080BDC046A94600003148000000
S1134A5090B585B000AF0200FB1D1A70FB1D1A78DB
S1134A60144B11001800144B9847FB1D1B781800B9
S1134A70124B98470300FB60FB689B7C01221340A8
S1134A80DBB2002B12D0FB689A7C01218A439A7412
S1134A90FB681B68002B0AD0FB681C68FB68D9689C
S1134AA0FB1D1B781A000120A04700E0C046BD464C
S1134AB005B090BD0C0A0020C16B000055460000F3
S1134AC080B584B000AF0200FB1D1A700823FB18E8
S1134AD01800184B98470F23FB18FA1D12780F2162
S1134AE00A401A70FB1D1B781800134B98470823C3
S1134AF0FB18FA1D12781A700823FB180022DA70CA
S1134B000823FA180D4B110018000D4B98470F237A
S1134B10FB181978094B002218000A4B9847FB1D13
S1134B201978064B00221800074B9847C046BD462B
S1134B3004B080BD2D660000514A00000C0A00201C
S1134B4055660000756200008964000090B587B066
S1134B5000AF040008001100FB1D221C1A70BB1DCD
S1134B60021C1A703B1D0A1C1A800C23FB18180027
S1134B70584B98470C23FB18FA1D12781A703B1DEA
S1134B801B88082B04D80C23FB1800225A7045E01C
S1134B903B1D1B88102B04D80C23FB1801225A70D0
S1134BA03CE03B1D1B88202B04D80C23FB1802225D
S1134BB05A7033E03B1D1B88402B04D80C23FB1890
S1134BC003225A702AE03B1D1B88802B04D80C2337
S1134BD0FB1804225A7021E03B1D1A8880235B00D5
S1134BE09A4204D80C23FB1805225A7016E03B1D88
S1134BF01A8880239B009A4204D80C23FB180622AF
S1134C005A700BE03B1D1B88334A934204D80C2393
S1134C10FB1807225A7001E0002357E0FB1D1B78A4
S1134C2018002E4B984703007B617B693A1D12885C
S1134C301A82BB1DBA1D127803210A401A70BB1DCB
S1134C401B78012B04D10C23FB180222DA7013E029
S1134C50BB1D1B78022B04D10C23FB180322DA7032
S1134C600AE0BB1D1B78032B04D10C23FB18042280
S1134C70DA7001E0002329E01323FB18FA1D1278EF
S1134C800F210A401A700C23FA18154B1100180052
S1134C90144B9847031E01D0002317E0124A132334
S1134CA0FB1819780E4813000022104CA047FB1D76
S1134CB019780B4B002218000D4B9847FB1D1978EF
S1134CC0074B012218000A4B984701231800BD46E0
S1134CD007B090BD2D660000FF030000554600009C
S1134CE00C0A002055660000094A0000F561000026
S1134CF0ED62000080B582B000AF0200FB1D1A70A7
S1134D00FB1D1A78044B11001800044B984703004C
S1134D101800BD4602B080BD0C0A0020496C00009A
S1134D2080B584B000AF0200FB1D1A700F23FB187E
S1134D30FA1D12780F210A401A700F23FB181B78F2
S1134D40042B01D900230CE0FB1D1A78074B11003A
S1134D501800074B9847FB1D1B781800054B984714
S1134D6001231800BD4604B080BDC0460C0A0020D3
S1134D70BD6C0000514A000080B584B000AF020051
S1134D80FB1D1A700F23FB18FA1D12780F210A401D
S1134D901A700F23FB181B78042B01D900231DE084
S1134DA0FB1D1B7818000F4B98470300BB60FB1DCD
S1134DB01A780D4B110018000C4B9847BB689B7C6C
S1134DC001221340DBB2002B07D0BB689A7C01217F
S1134DD08A439A74BB681B68984701231800BD4630
S1134DE004B080BD554600000C0A0020196D000077
S1134DF080B584B000AF02003960FB1D1A700F2328
S1134E00FB18FA1D12780F210A401A700F23FB18A1
S1134E101B78042B01D9002330E0FB1D1B781800FC
S1134E20184B98470300BB60BB689B7C012213406E
S1134E30DBB2002B01D0002320E0FB1D1A78124BBB
S1134E4011001800114B9847031E09D0BB689A7CC7
S1134E5001210A439A74BB683A681A6001230DE081
S1134E60FB1D1A78084B11001800094B9847031EC4
S1134E7003D03B689847012300E000231800BD4697
S1134E8004B080BD554600000C0A0020496C0000A7
S1134E904D6B000080B500AF074B05221A70074B1D
S1134EA080211800064B9847044B00211800054B3D
S1134EB09847C046BD4680BDB60300200C0A0020BA
S1134EC0BD6C0000196D000090B589B000AFBA60E8
S1134ED07B600F23FB18021C1A700E23FB180A1C9C
S1134EE01A701D23FB180F22BA1812780F210A40DA
S1134EF01A701D23FB181B78042B07D80F23FB18EB
S1134F001B7818009F4B9847031E01D0002334E1FF
S1134F100F23FB181B7818009B4B98470300BB61B9
S1134F209A4B984703007B61BB699B7C0122134029
S1134F30DBB2002B05D07B691800954B9847002302
S1134F401BE1BB699A7C01210A439A747B691800AE
S1134F508F4B9847BB69BA685A60BB697A689A6094
S1134F60BB690022DA60BB693A6B1A60BB690E2226
S1134F70BA18127801210A4090189A7C02218A43B7
S1134F80111C021C0A439A74BB699A7C04218A434B
S1134F909A740F23FB181B785BB2002B00DB78E0BC
S1134FA0BB699B68002B3FD0BB699A681E23FB1822
S1134FB01A801E23FB181B88764A93420DD9BB69BD
S1134FC01B8A1900734A744B100098470B009AB25D
S1134FD01E23FB186F498A1A1A80BB699B7C022224
S1134FE01340DBB2002B0DD0BB69198A1E23FB18BA
S1134FF01A886A4B100098470B009BB2002B01D112
S1135000012300E00023DBB21A1C01231340DAB2AF
S1135010BB6901210A4090189A7C02218A43111C21
S1135020021C0A439A7423E0BB699B7C022213404E
S1135030DBB2002B09D0BB699A7C02218A439A74A3
S11350401E23FB1800221A8012E0BB699A7C0121FE
S11350508A439A74BB691B68002B07D0BB691B6821
S11350600F22BA181278002100209847012384E007
S1135070BB695A681E23FB181C881D23FB1819786A
S113508047482300474CA04703005A425341DBB230
S113509073E0BB699B68002B5DD0BB699A681E23D3
S11350A0FB181A801E23FB181B883A4A93420ED918
S11350B0BB691B8A1900374A374B100098470B000D
S11350C09AB21E23FB1833498A1A1A8010E0BB696E
S11350D0198A1E23FB181A88304B100098470B00BE
S11350E09AB21E23FB181E21791809888A1A1A807D
S11350F0BB691B8A1E22BA1812889A421AD2BB694B
S11351009A7C04210A439A741D23FB181B78013BE3
S11351109A01254BD218BB691B8A1C001D23FB185E
S113512019781F482300214CA04703005A425341D9
S1135130DBB222E0BB695A681E23FB181C881D23BE
S1135140FB18197816482300184CA04703005A424C
S11351505341DBB211E0BB699A7C01218A439A7402
S1135160BB691B68002B07D0BB691B680F22BA18E8
S1135170127800210020984701231800BD4609B089
S113518090BDC046F54C0000554600002144000087
S113519069440000FF1F0000E5B2000011B10000E7
S11351A00C0A0020456E00000C090020F96E000076
S11351B080B582B000AF0200FB1D1A70FB1D1A7887
S11351C0044B11001800044B9847C046BD4602B07A
S11351D080BDC0460C0A00207945000080B500AFB0
S11351E0034B1800034B984703001800BD4680BDCD
S11351F00C0A00205D45000080B582B000AF7860E5
S11352000A00BB1C1A80054B7A689A60034BBA1CCF
S113521012889A81C046BD4602B080BD740B00203E
S113522080B500AF174B1A78174B1A70154B5A7884
S1135230154B5A70134BDB789BB21B029AB2114B7D
S11352409B789BB2D3189AB20F4B5A800D4B5B7963
S11352509BB21B029AB20B4B1B799BB2D3189AB226
S1135260094B9A80074BDB799BB21B029AB2054B20
S11352709B799BB2D3189AB2034BDA80C046BD46E1
S113528080BDC0468C0B0020740B0020B0B500AF6D
S1135290094B03221A70094A094B11001800094BE3
S11352A09847094B9A68064800230021074CA047F9
S11352B0C046BD46B0BDC046B60300208C0B0020DE
S11352C00C0A0020A96F0000740B0020456E00003A
S11352D090B583B000AF304B9989304B1A88BB1D11
S11352E08A1A1A80BB1D1B88002B30D12C4B1A88BC
S11352F02A4B1B88D3189AB2294B1A80264BDA887A
S1135300274B1B889A4203D0264B1B78002B09D0CD
S1135310254B04221A70254A254B11001800254BF1
S1135320984735E01C4B5B69002B10D01A4B5B6926
S1135330984703001A0001235340DBB2002B06D127
S1135340164B00221A80BB1D134A92891A80BB1D7A
S11353501B883F2B06D9BB1D40221A80114B00220B
S11353601A7002E00F4B01221A700B4B9B680B4A18
S113537012889A18BB1D1B880D4800210E4CA047AB
S1135380064B1A88BB1D1B88D3189AB2034B1A808C
S1135390BD4603B090BDC046740B0020BA03002084
S11353A0B80300205D040020B60300208C0B00200D
S11353B00C0A0020A96F0000456E000090B585B06E
S11353C000AF78607B68BB600E23FB18BA68128854
S11353D01A80454B9B891A00444B1B8819000E23E5
S11353E0FB181B88CB189A4207DA3F4B99893F4B2D
S11353F01A880E23FB188A1A1A803B4B9B683B4A77
S1135400128898180E23FB181A88394B1900394B47
S11354109847364B1A880E23FB181B88D3189AB268
S1135420324B1A800E23FB181B88402B0AD12E4BBB
S1135430DB881A00304B1B8819002C4B1B88CB18B7
S11354409A421BDC294B1A88274B9A81264B5B69AD
S1135450002B10D0244B5B69984703001A000123EA
S11354605340DBB2002B06D0244B05221A700020D7
S1135470234B984735E0234B984732E01A4B9A89DF
S11354801A4B1B889A4226D1174B5B69002B06D115
S11354901A4B05221A700020194B984721E0124B31
S11354A05B69984703001A0001235340DBB2002BC9
S11354B006D0124B05221A700020114B984710E0B9
S11354C00D4B1A88094B1B88D3189AB20A4B1A80C1
S11354D0064B00221A80064A0B48402300210B4C3D
S11354E0A047BD4605B090BD740B0020BA03002050
S11354F08C0B0020E1B50000B8030020B6030020A7
S1135500214D00008D5200000C0A0020F96E0000AD
S113551090B585B000AF786039603B68FB60294B7B
S11355201B78002B09D0284B1B69002B02D0264B7B
S11355301B699847234B00221A70FB681B88082BB1
S113554002D0224B98473AE0214B9847214B984789
S113555003001A0001235340DBB2002B02D01B4B83
S113556098472CE0184B1B785BB2002B11DA1A4BCE
S113557000221A80194B00221A80124B02221A7040
S1135580174A184840230021174CA047174B984747
S113559015E00D4BDB88002B02D1154B98470EE02C
S11355A00D4B00221A800D4B00221A80054B01225C
S11355B01A700B4A0B48402300210B4CA047BD46F0
S11355C005B090BDB6030020740B0020954E00007A
S11355D02152000091430000B8030020BA030020C8
S11355E08C0B00200C0A0020F96E0000D152000040
S11355F08D52000080B584B000AF78607B68FB609A
S11356000A4B1B78012B02D1094B98470AE0074B40
S11356101B78042B06D1FB689A79064B11001800FD
S1135620054B9847C046BD4604B080BDB603002074
S11356308D5200000C0A0020BD6C000080B584B0BF
S113564000AF78607B68FB600B4B1B78022B03D1A7
S1135650094B04221A700AE0074B1B78032B06D16E
S1135660FB689A79054B11001800054B9847C04612
S1135670BD4604B080BDC046B60300200C0A00201D
S1135680BD6C000080B584B000AF786039603B68C1
S1135690FB60FB689B795BB2002B04DA3B68180063
S11356A0054B984703E03B681800044B9847C046F5
S11356B0BD4604B080BDC046F55500003D5600000F
S11356C080B582B000AF786039600F4B1B78012B36
S11356D004D13B6818000D4B984710E00A4B1B7827
S11356E0022B02D10A4B984709E00A4B1B69002B95
S11356F002D0084B1B699847034B00221A70C0461E
S1135700BD4602B080BDC046B6030020BD530000B4
S1135710D1520000740B002090B585B000AF7860C2
S11357200C23FB1818001F4B98470C23FB1803226B
S11357305A700C23FA187B68110018001A4B98470A
S11357401A4A7B6811001800194B9847194B78685E
S113575002220021184CA047184B7868002200212F
S1135760154CA047164B786801220021124CA04723
S11357707B68022200211800124B98477B680022A4
S1135780002118000F4B98477B6801220021180064
S11357900C4B98470C4B00221A70C046BD4605B00E
S11357A090BDC0462D660000556600008C0B00209D
S11357B0A96F000011550000F5610000C1560000FA
S11357C085560000ED620000B603002080B582B06B
S11357D000AF78603960094B04211800084B9847E2
S11357E0064B02211800074B98470120064B9847A7
S11357F0064B9847C046BD4602B080BD0C0A002047
S1135800A161000045610000DD4500004121000068
S113581080B582B000AF78603960034B9847C046CA
S1135820BD4602B080BDC046C93A000080B582B012
S113583000AF78603960074B98477B6800211800F7
S1135840054B98477B681800044B9847C046BD46F3
S113585002B080BD693A0000794500001957000084
S113586080B582B000AF786039600A4B98470A4B24
S113587002211800094B9847074B04211800084BD4
S113588098470320074B9847074B9847C046BD46A7
S113589002B080BDA14500000C0A0020A1610000F7
S11358A045610000DD4500004B21000080B500AFDC
S11358B003201A4B98471A4B18001A4B98471A4A58
S11358C0174B04211800194B9847194A144B00210F
S11358D01800164B9847174A114B01211800134B17
S11358E09847154A0E4B02211800104B98470C4B51
S11358F004211800114B9847094B002118000F4B45
S11359009847074B012118000C4B9847044B022180
S113591018000A4B9847C046BD4680BDDD450000CF
S11359200C0A002039450000CD570000F560000046
S1135930115800002D580000615800004561000016
S113594080B582B000AF114B984703007B603B00E9
S113595018000F4B98473B0001229A703A000D49FA
S11359600D4B18000D4B98470B4B18000C4B9847E8
S11359700C4B984701200C4B98477B6818000B4B45
S11359809847C046BD4602B080BDC04621440000D1
S1135990D9750000005000410C0A00200176000077
S11359A071750000A1450000DD4500006944000058
S11359B080B582B000AF78607B6800221A70C04660
S11359C0BD4602B080BD000080B582B000AF0200C9
S11359D03960FB1D1A70FB1D1B78012B0AD0022BAA
S11359E00FD0002B14D10E4B0D4A91693A680A432B
S11359F09A610FE00A4B0A4AD1693A680A43DA61AC
S1135A0008E0074B064A116A3A680A431A6201E041
S1135A10172300E000231800BD4602B080BDC04635
S1135A200004004080B582B000AF78607B688022BB
S1135A301A707B6800225A707B6801229A707B6816
S1135A400022DA70C046BD4602B080BD80B582B087
S1135A5000AF0200FB1D1A70064BFA1D12781100EC
S1135A601F220A40012191400A001A60C046BD4627
S1135A7002B080BD00E100E080B582B000AFA44B6D
S1135A801B681B681B8C9BB2002B0AD0A04B1B68A5
S1135A901B681B8C9BB21A009E4B10009847030096
S1135AA000E020237B607B681F2B00D904E2984B25
S1135AB01B681A687B6808335B01D31807331B78AB
S1135AC0DBB23B603B680322134000D188E0012233
S1135AD07B689A401300DB431A008F4B1B681A4003
S1135AE08D4B1A608A4B1B681A687B6808335B010C
S1135AF0D318073303221A70854B1A68AE217B68CA
S1135B00D3185B181B781A000123134068D07B68F4
S1135B10DAB2824B1A707E4B1B681B687A680832B3
S1135B205201D35C9B079B0FDBB2012B1ED17C4A35
S1135B307B685B01D3185B689B049B0C9BB21A00C7
S1135B40764B5A80764A7B685B01D3185B681B01ED
S1135B509B0C9BB21A00714B9A80714A7B685B0163
S1135B60D3185A68920B92035A602CE06C4A7B68F3
S1135B705B01D3185B681B019B0C9BB21A00674B3B
S1135B805A80674A7B685B01D3185B689B049B0C53
S1135B909BB21A00614B9A80614A7B685B01D318FF
S1135BA05A6860490A405A605C4B5B88002B0AD1F2
S1135BB05B4A7B685B01D3185B689B049B0C9BB2BC
S1135BC01A00564B5A80524B1A687B6802331B01E9
S1135BD0D31804331A684E4B1B6850491800904779
S1135BE03B680422134000D1AFE0494B1B681B689B
S1135BF07A6808325201D35C9B065B0FDBB2022B3E
S1135C0051D1434B1B681B687A6808325201D35C3C
S1135C109B079B0FDBB2012B45D1414A7B685B019B
S1135C20D31808339B78DB07DB0FDBB2002B3AD0A9
S1135C3001227B689A401300DB431A00364B1B6831
S1135C401A40354B1A60364A7B685B01D3180A3315
S1135C5000221A702E4B1B681A687B6808335B019C
S1135C60D318073304221A70294B1A68AE217B68B3
S1135C70D3185B181B781A000223134065D07B6885
S1135C80DAB2264B1A70254B10225A70204B1A6830
S1135C907B681B01D31828331A681D4B1B681F49E6
S1135CA01800904751E01A4B1B681B687A68083249
S1135CB05201D35C9B065B0FDBB2032B34D1144B34
S1135CC01B681B687A6808325201D35C9B079B0FE0
S1135CD0DBB2012B28D1124A7B685B01D3180A334B
S1135CE000221A700A4B1B681A687B6808335B0130
